{"contracts/X1Coin.sol":{"X1Coin":{"abi":[{"inputs":[],"stateMutability":"nonpayable","type":"constructor"},{"anonymous":false,"inputs":[{"indexed":true,"internalType":"address","name":"owner","type":"address"},{"indexed":true,"internalType":"address","name":"spender","type":"address"},{"indexed":false,"internalType":"uint256","name":"value","type":"uint256"}],"name":"Approval","type":"event"},{"anonymous":false,"inputs":[{"indexed":true,"internalType":"address","name":"previousOwner","type":"address"},{"indexed":true,"internalType":"address","name":"newOwner","type":"address"}],"name":"OwnershipTransferred","type":"event"},{"anonymous":false,"inputs":[{"indexed":true,"internalType":"address","name":"to","type":"address"},{"indexed":false,"internalType":"uint256","name":"amount","type":"uint256"}],"name":"TeamTokensUnlocked","type":"event"},{"anonymous":false,"inputs":[{"indexed":true,"internalType":"address","name":"to","type":"address"},{"indexed":false,"internalType":"uint256","name":"amount","type":"uint256"}],"name":"TokensDistributed","type":"event"},{"anonymous":false,"inputs":[{"indexed":true,"internalType":"address","name":"from","type":"address"},{"indexed":true,"internalType":"address","name":"to","type":"address"},{"indexed":false,"internalType":"uint256","name":"value","type":"uint256"}],"name":"Transfer","type":"event"},{"inputs":[],"name":"COMMUNITY_ALLOCATION","outputs":[{"internalType":"uint256","name":"","type":"uint256"}],"stateMutability":"view","type":"function"},{"inputs":[],"name":"PUBLIC_SALE_ALLOCATION","outputs":[{"internalType":"uint256","name":"","type":"uint256"}],"stateMutability":"view","type":"function"},{"inputs":[],"name":"TEAM_ALLOCATION","outputs":[{"internalType":"uint256","name":"","type":"uint256"}],"stateMutability":"view","type":"function"},{"inputs":[],"name":"TOTAL_SUPPLY","outputs":[{"internalType":"uint256","name":"","type":"uint256"}],"stateMutability":"view","type":"function"},{"inputs":[{"internalType":"address","name":"owner","type":"address"},{"internalType":"address","name":"spender","type":"address"}],"name":"allowance","outputs":[{"internalType":"uint256","name":"","type":"uint256"}],"stateMutability":"view","type":"function"},{"inputs":[{"internalType":"address","name":"spender","type":"address"},{"internalType":"uint256","name":"amount","type":"uint256"}],"name":"approve","outputs":[{"internalType":"bool","name":"","type":"bool"}],"stateMutability":"nonpayable","type":"function"},{"inputs":[{"internalType":"address","name":"account","type":"address"}],"name":"balanceOf","outputs":[{"internalType":"uint256","name":"","type":"uint256"}],"stateMutability":"view","type":"function"},{"inputs":[],"name":"decimals","outputs":[{"internalType":"uint8","name":"","type":"uint8"}],"stateMutability":"pure","type":"function"},{"inputs":[{"internalType":"address","name":"spender","type":"address"},{"internalType":"uint256","name":"subtractedValue","type":"uint256"}],"name":"decreaseAllowance","outputs":[{"internalType":"bool","name":"","type":"bool"}],"stateMutability":"nonpayable","type":"function"},{"inputs":[{"internalType":"address","name":"to","type":"address"},{"internalType":"uint256","name":"amount","type":"uint256"}],"name":"distributeCommunityTokens","outputs":[],"stateMutability":"nonpayable","type":"function"},{"inputs":[{"internalType":"address","name":"spender","type":"address"},{"internalType":"uint256","name":"addedValue","type":"uint256"}],"name":"increaseAllowance","outputs":[{"internalType":"bool","name":"","type":"bool"}],"stateMutability":"nonpayable","type":"function"},{"inputs":[],"name":"name","outputs":[{"internalType":"string","name":"","type":"string"}],"stateMutability":"view","type":"function"},{"inputs":[],"name":"owner","outputs":[{"internalType":"address","name":"","type":"address"}],"stateMutability":"view","type":"function"},{"inputs":[],"name":"remainingLockTime","outputs":[{"internalType":"uint256","name":"","type":"uint256"}],"stateMutability":"view","type":"function"},{"inputs":[],"name":"renounceOwnership","outputs":[],"stateMutability":"nonpayable","type":"function"},{"inputs":[],"name":"symbol","outputs":[{"internalType":"string","name":"","type":"string"}],"stateMutability":"view","type":"function"},{"inputs":[],"name":"totalSupply","outputs":[{"internalType":"uint256","name":"","type":"uint256"}],"stateMutability":"view","type":"function"},{"inputs":[{"internalType":"address","name":"to","type":"address"},{"internalType":"uint256","name":"amount","type":"uint256"}],"name":"transfer","outputs":[{"internalType":"bool","name":"","type":"bool"}],"stateMutability":"nonpayable","type":"function"},{"inputs":[{"internalType":"address","name":"from","type":"address"},{"internalType":"address","name":"to","type":"address"},{"internalType":"uint256","name":"amount","type":"uint256"}],"name":"transferFrom","outputs":[{"internalType":"bool","name":"","type":"bool"}],"stateMutability":"nonpayable","type":"function"},{"inputs":[{"internalType":"address","name":"newOwner","type":"address"}],"name":"transferOwnership","outputs":[],"stateMutability":"nonpayable","type":"function"},{"inputs":[{"internalType":"address","name":"to","type":"address"}],"name":"unlockTeamTokens","outputs":[],"stateMutability":"nonpayable","type":"function"},{"inputs":[],"name":"unlockTime","outputs":[{"internalType":"uint256","name":"","type":"uint256"}],"stateMutability":"view","type":"function"}],"evm":{"bytecode":{"linkReferences":{},"object":"60a060405234801561001057600080fd5b50604051806040016040528060068152602001652c18a1b7b4b760d11b8152506040518060400160405280600381526020016258314360e81b815250816003908161005b91906102d2565b50600461006882826102d2565b50505061008161007c61011660201b60201c565b61011a565b6100ad33606461009e6b033b2e3c9fd0803ce800000060326103a6565b6100a891906103c3565b61016c565b6101013060646100ca6b033b2e3c9fd0803ce800000060146103a6565b6100d491906103c3565b60646100ed6b033b2e3c9fd0803ce8000000601e6103a6565b6100f791906103c3565b6100a891906103e5565b61010e4262ed4e006103e5565b6080526103f8565b3390565b600580546001600160a01b038381166001600160a01b0319831681179093556040519116919082907f8be0079c531659141344cd1fd0a4f28419497f9722a3daafe3b4186f6b6457e090600090a35050565b6001600160a01b0382166101c65760405162461bcd60e51b815260206004820152601f60248201527f45524332303a206d696e7420746f20746865207a65726f206164647265737300604482015260640160405180910390fd5b80600260008282546101d891906103e5565b90915550506001600160a01b038216600081815260208181526040808320805486019055518481527fddf252ad1be2c89b69c2b068fc378daa952ba7f163c4a11628f55a4df523b3ef910160405180910390a35050565b505050565b634e487b7160e01b600052604160045260246000fd5b600181811c9082168061025e57607f821691505b60208210810361027e57634e487b7160e01b600052602260045260246000fd5b50919050565b601f82111561022f57806000526020600020601f840160051c810160208510156102ab5750805b601f840160051c820191505b818110156102cb57600081556001016102b7565b5050505050565b81516001600160401b038111156102eb576102eb610234565b6102ff816102f9845461024a565b84610284565b6020601f821160018114610333576000831561031b5750848201515b600019600385901b1c1916600184901b1784556102cb565b600084815260208120601f198516915b828110156103635787850151825560209485019460019092019101610343565b50848210156103815786840151600019600387901b60f8161c191681555b50505050600190811b01905550565b634e487b7160e01b600052601160045260246000fd5b80820281158282048414176103bd576103bd610390565b92915050565b6000826103e057634e487b7160e01b600052601260045260246000fd5b500490565b808201808211156103bd576103bd610390565b608051610dd4610428600039600081816101b201528181610418015281816106f101526107210152610dd46000f3fe608060405234801561001057600080fd5b50600436106101425760003560e01c80638da5cb5b116100b8578063a457c2d71161007c578063a457c2d714610294578063a9059cbb146102a7578063dd62ed3e146102ba578063ec0359f4146102cd578063f2fde38b146102d5578063fd99cbed146102e857600080fd5b80638da5cb5b14610244578063902d55a51461025f57806395d89b4114610271578063993eb1c5146102795780639ca5bc011461028157600080fd5b8063313ce5671161010a578063313ce567146101d457806339509351146101e35780633dc762f0146101f657806363e27a63146101fe57806370a0823114610213578063715018a61461023c57600080fd5b806306fdde0314610147578063095ea7b31461016557806318160ddd1461018857806323b872dd1461019a578063251c1aa3146101ad575b600080fd5b61014f6102f0565b60405161015c9190610bc9565b60405180910390f35b610178610173366004610c33565b610382565b604051901515815260200161015c565b6002545b60405190815260200161015c565b6101786101a8366004610c5d565b610399565b61018c7f000000000000000000000000000000000000000000000000000000000000000081565b6040516012815260200161015c565b6101786101f1366004610c33565b6103bd565b61018c6103e9565b61021161020c366004610c9a565b61040e565b005b61018c610221366004610c9a565b6001600160a01b031660009081526020819052604090205490565b61021161050d565b6005546040516001600160a01b03909116815260200161015c565b61018c676765c793fa10079d601b1b81565b61014f610521565b61018c610530565b61021161028f366004610c33565b610548565b6101786102a2366004610c33565b610638565b6101786102b5366004610c33565b6106b3565b61018c6102c8366004610cbc565b6106c1565b61018c6106ec565b6102116102e3366004610c9a565b61074a565b61018c6107c3565b6060600380546102ff90610cef565b80601f016020809104026020016040519081016040528092919081815260200182805461032b90610cef565b80156103785780601f1061034d57610100808354040283529160200191610378565b820191906000526020600020905b81548152906001019060200180831161035b57829003601f168201915b5050505050905090565b600061038f3384846107db565b5060015b92915050565b6000336103a78582856108ff565b6103b2858585610979565b506001949350505050565b6000336103df8185856103d083836106c1565b6103da9190610d3f565b6107db565b5060019392505050565b6064610401676765c793fa10079d601b1b6032610d52565b61040b9190610d69565b81565b610416610b1d565b7f00000000000000000000000000000000000000000000000000000000000000004210156104805760405162461bcd60e51b81526020600482015260126024820152711519585b481d1bdad95b9cc81b1bd8dad95960721b60448201526064015b60405180910390fd5b6104ac3082606461049d676765c793fa10079d601b1b601e610d52565b6104a79190610d69565b610979565b6001600160a01b0381167f7d4955d93898478c1771bc9c73295d873ff9e12ebac83fe4e3b2f99f7de1ea4260646104ef676765c793fa10079d601b1b601e610d52565b6104f99190610d69565b60405190815260200160405180910390a250565b610515610b1d565b61051f6000610b77565b565b6060600480546102ff90610cef565b6064610401676765c793fa10079d601b1b6014610d52565b610550610b1d565b6064610568676765c793fa10079d601b1b6014610d52565b6105729190610d69565b816006546105809190610d3f565b11156105ce5760405162461bcd60e51b815260206004820152601c60248201527f4578636565647320636f6d6d756e69747920616c6c6f636174696f6e000000006044820152606401610477565b80600660008282546105e09190610d3f565b909155506105f19050308383610979565b816001600160a01b03167f16b0da2ffcb90c6723317bd637d9aad7f04711f42bbe0ac0918ebe10f1f9001c8260405161062c91815260200190565b60405180910390a25050565b6000338161064682866106c1565b9050838110156106a65760405162461bcd60e51b815260206004820152602560248201527f45524332303a2064656372656173656420616c6c6f77616e63652062656c6f77604482015264207a65726f60d81b6064820152608401610477565b6103b282868684036107db565b6000336103df818585610979565b6001600160a01b03918216600090815260016020908152604080832093909416825291909152205490565b6000427f00000000000000000000000000000000000000000000000000000000000000001161071b5750600090565b610745427f0000000000000000000000000000000000000000000000000000000000000000610d8b565b905090565b610752610b1d565b6001600160a01b0381166107b75760405162461bcd60e51b815260206004820152602660248201527f4f776e61626c653a206e6577206f776e657220697320746865207a65726f206160448201526564647265737360d01b6064820152608401610477565b6107c081610b77565b50565b6064610401676765c793fa10079d601b1b601e610d52565b6001600160a01b03831661083d5760405162461bcd60e51b8152602060048201526024808201527f45524332303a20617070726f76652066726f6d20746865207a65726f206164646044820152637265737360e01b6064820152608401610477565b6001600160a01b03821661089e5760405162461bcd60e51b815260206004820152602260248201527f45524332303a20617070726f766520746f20746865207a65726f206164647265604482015261737360f01b6064820152608401610477565b6001600160a01b0383811660008181526001602090815260408083209487168084529482529182902085905590518481527f8c5be1e5ebec7d5bd14f71427d1e84f3dd0314c0f7b2291e5b200ac8c7c3b925910160405180910390a3505050565b600061090b84846106c1565b9050600019811461097357818110156109665760405162461bcd60e51b815260206004820152601d60248201527f45524332303a20696e73756666696369656e7420616c6c6f77616e63650000006044820152606401610477565b61097384848484036107db565b50505050565b6001600160a01b0383166109dd5760405162461bcd60e51b815260206004820152602560248201527f45524332303a207472616e736665722066726f6d20746865207a65726f206164604482015264647265737360d81b6064820152608401610477565b6001600160a01b038216610a3f5760405162461bcd60e51b815260206004820152602360248201527f45524332303a207472616e7366657220746f20746865207a65726f206164647260448201526265737360e81b6064820152608401610477565b6001600160a01b03831660009081526020819052604090205481811015610ab75760405162461bcd60e51b815260206004820152602660248201527f45524332303a207472616e7366657220616d6f756e7420657863656564732062604482015265616c616e636560d01b6064820152608401610477565b6001600160a01b03848116600081815260208181526040808320878703905593871680835291849020805487019055925185815290927fddf252ad1be2c89b69c2b068fc378daa952ba7f163c4a11628f55a4df523b3ef910160405180910390a3610973565b6005546001600160a01b0316331461051f5760405162461bcd60e51b815260206004820181905260248201527f4f776e61626c653a2063616c6c6572206973206e6f7420746865206f776e65726044820152606401610477565b600580546001600160a01b038381166001600160a01b0319831681179093556040519116919082907f8be0079c531659141344cd1fd0a4f28419497f9722a3daafe3b4186f6b6457e090600090a35050565b602081526000825180602084015260005b81811015610bf75760208186018101516040868401015201610bda565b506000604082850101526040601f19601f83011684010191505092915050565b80356001600160a01b0381168114610c2e57600080fd5b919050565b60008060408385031215610c4657600080fd5b610c4f83610c17565b946020939093013593505050565b600080600060608486031215610c7257600080fd5b610c7b84610c17565b9250610c8960208501610c17565b929592945050506040919091013590565b600060208284031215610cac57600080fd5b610cb582610c17565b9392505050565b60008060408385031215610ccf57600080fd5b610cd883610c17565b9150610ce660208401610c17565b90509250929050565b600181811c90821680610d0357607f821691505b602082108103610d2357634e487b7160e01b600052602260045260246000fd5b50919050565b634e487b7160e01b600052601160045260246000fd5b8082018082111561039357610393610d29565b808202811582820484141761039357610393610d29565b600082610d8657634e487b7160e01b600052601260045260246000fd5b500490565b8181038181111561039357610393610d2956fea2646970667358221220f0b26c479fdb3825bf500fe1a9d9463e8081c3448803db7880800b7fbfd731e764736f6c634300081c0033","opcodes":"PUSH1 0xA0 PUSH1 0x40 MSTORE CALLVALUE DUP1 ISZERO PUSH2 0x10 JUMPI PUSH1 0x0 DUP1 REVERT JUMPDEST POP PUSH1 0x40 MLOAD DUP1 PUSH1 0x40 ADD PUSH1 0x40 MSTORE DUP1 PUSH1 0x6 DUP2 MSTORE PUSH1 0x20 ADD PUSH6 0x2C18A1B7B4B7 PUSH1 0xD1 SHL DUP2 MSTORE POP PUSH1 0x40 MLOAD DUP1 PUSH1 0x40 ADD PUSH1 0x40 MSTORE DUP1 PUSH1 0x3 DUP2 MSTORE PUSH1 0x20 ADD PUSH3 0x583143 PUSH1 0xE8 SHL DUP2 MSTORE POP DUP2 PUSH1 0x3 SWAP1 DUP2 PUSH2 0x5B SWAP2 SWAP1 PUSH2 0x2D2 JUMP JUMPDEST POP PUSH1 0x4 PUSH2 0x68 DUP3 DUP3 PUSH2 0x2D2 JUMP JUMPDEST POP POP POP PUSH2 0x81 PUSH2 0x7C PUSH2 0x116 PUSH1 0x20 SHL PUSH1 0x20 SHR JUMP JUMPDEST PUSH2 0x11A JUMP JUMPDEST PUSH2 0xAD CALLER PUSH1 0x64 PUSH2 0x9E PUSH12 0x33B2E3C9FD0803CE8000000 PUSH1 0x32 PUSH2 0x3A6 JUMP JUMPDEST PUSH2 0xA8 SWAP2 SWAP1 PUSH2 0x3C3 JUMP JUMPDEST PUSH2 0x16C JUMP JUMPDEST PUSH2 0x101 ADDRESS PUSH1 0x64 PUSH2 0xCA PUSH12 0x33B2E3C9FD0803CE8000000 PUSH1 0x14 PUSH2 0x3A6 JUMP JUMPDEST PUSH2 0xD4 SWAP2 SWAP1 PUSH2 0x3C3 JUMP JUMPDEST PUSH1 0x64 PUSH2 0xED PUSH12 0x33B2E3C9FD0803CE8000000 PUSH1 0x1E PUSH2 0x3A6 JUMP JUMPDEST PUSH2 0xF7 SWAP2 SWAP1 PUSH2 0x3C3 JUMP JUMPDEST PUSH2 0xA8 SWAP2 SWAP1 PUSH2 0x3E5 JUMP JUMPDEST PUSH2 0x10E TIMESTAMP PUSH3 0xED4E00 PUSH2 0x3E5 JUMP JUMPDEST PUSH1 0x80 MSTORE PUSH2 0x3F8 JUMP JUMPDEST CALLER SWAP1 JUMP JUMPDEST PUSH1 0x5 DUP1 SLOAD PUSH1 0x1 PUSH1 0x1 PUSH1 0xA0 SHL SUB DUP4 DUP2 AND PUSH1 0x1 PUSH1 0x1 PUSH1 0xA0 SHL SUB NOT DUP4 AND DUP2 OR SWAP1 SWAP4 SSTORE PUSH1 0x40 MLOAD SWAP2 AND SWAP2 SWAP1 DUP3 SWAP1 PUSH32 0x8BE0079C531659141344CD1FD0A4F28419497F9722A3DAAFE3B4186F6B6457E0 SWAP1 PUSH1 0x0 SWAP1 LOG3 POP POP JUMP JUMPDEST PUSH1 0x1 PUSH1 0x1 PUSH1 0xA0 SHL SUB DUP3 AND PUSH2 0x1C6 JUMPI PUSH1 0x40 MLOAD PUSH3 0x461BCD PUSH1 0xE5 SHL DUP2 MSTORE PUSH1 0x20 PUSH1 0x4 DUP3 ADD MSTORE PUSH1 0x1F PUSH1 0x24 DUP3 ADD MSTORE PUSH32 0x45524332303A206D696E7420746F20746865207A65726F206164647265737300 PUSH1 0x44 DUP3 ADD MSTORE PUSH1 0x64 ADD PUSH1 0x40 MLOAD DUP1 SWAP2 SUB SWAP1 REVERT JUMPDEST DUP1 PUSH1 0x2 PUSH1 0x0 DUP3 DUP3 SLOAD PUSH2 0x1D8 SWAP2 SWAP1 PUSH2 0x3E5 JUMP JUMPDEST SWAP1 SWAP2 SSTORE POP POP PUSH1 0x1 PUSH1 0x1 PUSH1 0xA0 SHL SUB DUP3 AND PUSH1 0x0 DUP2 DUP2 MSTORE PUSH1 0x20 DUP2 DUP2 MSTORE PUSH1 0x40 DUP1 DUP4 KECCAK256 DUP1 SLOAD DUP7 ADD SWAP1 SSTORE MLOAD DUP5 DUP2 MSTORE PUSH32 0xDDF252AD1BE2C89B69C2B068FC378DAA952BA7F163C4A11628F55A4DF523B3EF SWAP2 ADD PUSH1 0x40 MLOAD DUP1 SWAP2 SUB SWAP1 LOG3 POP POP JUMP JUMPDEST POP POP POP JUMP JUMPDEST PUSH4 0x4E487B71 PUSH1 0xE0 SHL PUSH1 0x0 MSTORE PUSH1 0x41 PUSH1 0x4 MSTORE PUSH1 0x24 PUSH1 0x0 REVERT JUMPDEST PUSH1 0x1 DUP2 DUP2 SHR SWAP1 DUP3 AND DUP1 PUSH2 0x25E JUMPI PUSH1 0x7F DUP3 AND SWAP2 POP JUMPDEST PUSH1 0x20 DUP3 LT DUP2 SUB PUSH2 0x27E JUMPI PUSH4 0x4E487B71 PUSH1 0xE0 SHL PUSH1 0x0 MSTORE PUSH1 0x22 PUSH1 0x4 MSTORE PUSH1 0x24 PUSH1 0x0 REVERT JUMPDEST POP SWAP2 SWAP1 POP JUMP JUMPDEST PUSH1 0x1F DUP3 GT ISZERO PUSH2 0x22F JUMPI DUP1 PUSH1 0x0 MSTORE PUSH1 0x20 PUSH1 0x0 KECCAK256 PUSH1 0x1F DUP5 ADD PUSH1 0x5 SHR DUP2 ADD PUSH1 0x20 DUP6 LT ISZERO PUSH2 0x2AB JUMPI POP DUP1 JUMPDEST PUSH1 0x1F DUP5 ADD PUSH1 0x5 SHR DUP3 ADD SWAP2 POP JUMPDEST DUP2 DUP2 LT ISZERO PUSH2 0x2CB JUMPI PUSH1 0x0 DUP2 SSTORE PUSH1 0x1 ADD PUSH2 0x2B7 JUMP JUMPDEST POP POP POP POP POP JUMP JUMPDEST DUP2 MLOAD PUSH1 0x1 PUSH1 0x1 PUSH1 0x40 SHL SUB DUP2 GT ISZERO PUSH2 0x2EB JUMPI PUSH2 0x2EB PUSH2 0x234 JUMP JUMPDEST PUSH2 0x2FF DUP2 PUSH2 0x2F9 DUP5 SLOAD PUSH2 0x24A JUMP JUMPDEST DUP5 PUSH2 0x284 JUMP JUMPDEST PUSH1 0x20 PUSH1 0x1F DUP3 GT PUSH1 0x1 DUP2 EQ PUSH2 0x333 JUMPI PUSH1 0x0 DUP4 ISZERO PUSH2 0x31B JUMPI POP DUP5 DUP3 ADD MLOAD JUMPDEST PUSH1 0x0 NOT PUSH1 0x3 DUP6 SWAP1 SHL SHR NOT AND PUSH1 0x1 DUP5 SWAP1 SHL OR DUP5 SSTORE PUSH2 0x2CB JUMP JUMPDEST PUSH1 0x0 DUP5 DUP2 MSTORE PUSH1 0x20 DUP2 KECCAK256 PUSH1 0x1F NOT DUP6 AND SWAP2 JUMPDEST DUP3 DUP2 LT ISZERO PUSH2 0x363 JUMPI DUP8 DUP6 ADD MLOAD DUP3 SSTORE PUSH1 0x20 SWAP5 DUP6 ADD SWAP5 PUSH1 0x1 SWAP1 SWAP3 ADD SWAP2 ADD PUSH2 0x343 JUMP JUMPDEST POP DUP5 DUP3 LT ISZERO PUSH2 0x381 JUMPI DUP7 DUP5 ADD MLOAD PUSH1 0x0 NOT PUSH1 0x3 DUP8 SWAP1 SHL PUSH1 0xF8 AND SHR NOT AND DUP2 SSTORE JUMPDEST POP POP POP POP PUSH1 0x1 SWAP1 DUP2 SHL ADD SWAP1 SSTORE POP JUMP JUMPDEST PUSH4 0x4E487B71 PUSH1 0xE0 SHL PUSH1 0x0 MSTORE PUSH1 0x11 PUSH1 0x4 MSTORE PUSH1 0x24 PUSH1 0x0 REVERT JUMPDEST DUP1 DUP3 MUL DUP2 ISZERO DUP3 DUP3 DIV DUP5 EQ OR PUSH2 0x3BD JUMPI PUSH2 0x3BD PUSH2 0x390 JUMP JUMPDEST SWAP3 SWAP2 POP POP JUMP JUMPDEST PUSH1 0x0 DUP3 PUSH2 0x3E0 JUMPI PUSH4 0x4E487B71 PUSH1 0xE0 SHL PUSH1 0x0 MSTORE PUSH1 0x12 PUSH1 0x4 MSTORE PUSH1 0x24 PUSH1 0x0 REVERT JUMPDEST POP DIV SWAP1 JUMP JUMPDEST DUP1 DUP3 ADD DUP1 DUP3 GT ISZERO PUSH2 0x3BD JUMPI PUSH2 0x3BD PUSH2 0x390 JUMP JUMPDEST PUSH1 0x80 MLOAD PUSH2 0xDD4 PUSH2 0x428 PUSH1 0x0 CODECOPY PUSH1 0x0 DUP2 DUP2 PUSH2 0x1B2 ADD MSTORE DUP2 DUP2 PUSH2 0x418 ADD MSTORE DUP2 DUP2 PUSH2 0x6F1 ADD MSTORE PUSH2 0x721 ADD MSTORE PUSH2 0xDD4 PUSH1 0x0 RETURN INVALID PUSH1 0x80 PUSH1 0x40 MSTORE CALLVALUE DUP1 ISZERO PUSH2 0x10 JUMPI PUSH1 0x0 DUP1 REVERT JUMPDEST POP PUSH1 0x4 CALLDATASIZE LT PUSH2 0x142 JUMPI PUSH1 0x0 CALLDATALOAD PUSH1 0xE0 SHR DUP1 PUSH4 0x8DA5CB5B GT PUSH2 0xB8 JUMPI DUP1 PUSH4 0xA457C2D7 GT PUSH2 0x7C JUMPI DUP1 PUSH4 0xA457C2D7 EQ PUSH2 0x294 JUMPI DUP1 PUSH4 0xA9059CBB EQ PUSH2 0x2A7 JUMPI DUP1 PUSH4 0xDD62ED3E EQ PUSH2 0x2BA JUMPI DUP1 PUSH4 0xEC0359F4 EQ PUSH2 0x2CD JUMPI DUP1 PUSH4 0xF2FDE38B EQ PUSH2 0x2D5 JUMPI DUP1 PUSH4 0xFD99CBED EQ PUSH2 0x2E8 JUMPI PUSH1 0x0 DUP1 REVERT JUMPDEST DUP1 PUSH4 0x8DA5CB5B EQ PUSH2 0x244 JUMPI DUP1 PUSH4 0x902D55A5 EQ PUSH2 0x25F JUMPI DUP1 PUSH4 0x95D89B41 EQ PUSH2 0x271 JUMPI DUP1 PUSH4 0x993EB1C5 EQ PUSH2 0x279 JUMPI DUP1 PUSH4 0x9CA5BC01 EQ PUSH2 0x281 JUMPI PUSH1 0x0 DUP1 REVERT JUMPDEST DUP1 PUSH4 0x313CE567 GT PUSH2 0x10A JUMPI DUP1 PUSH4 0x313CE567 EQ PUSH2 0x1D4 JUMPI DUP1 PUSH4 0x39509351 EQ PUSH2 0x1E3 JUMPI DUP1 PUSH4 0x3DC762F0 EQ PUSH2 0x1F6 JUMPI DUP1 PUSH4 0x63E27A63 EQ PUSH2 0x1FE JUMPI DUP1 PUSH4 0x70A08231 EQ PUSH2 0x213 JUMPI DUP1 PUSH4 0x715018A6 EQ PUSH2 0x23C JUMPI PUSH1 0x0 DUP1 REVERT JUMPDEST DUP1 PUSH4 0x6FDDE03 EQ PUSH2 0x147 JUMPI DUP1 PUSH4 0x95EA7B3 EQ PUSH2 0x165 JUMPI DUP1 PUSH4 0x18160DDD EQ PUSH2 0x188 JUMPI DUP1 PUSH4 0x23B872DD EQ PUSH2 0x19A JUMPI DUP1 PUSH4 0x251C1AA3 EQ PUSH2 0x1AD JUMPI JUMPDEST PUSH1 0x0 DUP1 REVERT JUMPDEST PUSH2 0x14F PUSH2 0x2F0 JUMP JUMPDEST PUSH1 0x40 MLOAD PUSH2 0x15C SWAP2 SWAP1 PUSH2 0xBC9 JUMP JUMPDEST PUSH1 0x40 MLOAD DUP1 SWAP2 SUB SWAP1 RETURN JUMPDEST PUSH2 0x178 PUSH2 0x173 CALLDATASIZE PUSH1 0x4 PUSH2 0xC33 JUMP JUMPDEST PUSH2 0x382 JUMP JUMPDEST PUSH1 0x40 MLOAD SWAP1 ISZERO ISZERO DUP2 MSTORE PUSH1 0x20 ADD PUSH2 0x15C JUMP JUMPDEST PUSH1 0x2 SLOAD JUMPDEST PUSH1 0x40 MLOAD SWAP1 DUP2 MSTORE PUSH1 0x20 ADD PUSH2 0x15C JUMP JUMPDEST PUSH2 0x178 PUSH2 0x1A8 CALLDATASIZE PUSH1 0x4 PUSH2 0xC5D JUMP JUMPDEST PUSH2 0x399 JUMP JUMPDEST PUSH2 0x18C PUSH32 0x0 DUP2 JUMP JUMPDEST PUSH1 0x40 MLOAD PUSH1 0x12 DUP2 MSTORE PUSH1 0x20 ADD PUSH2 0x15C JUMP JUMPDEST PUSH2 0x178 PUSH2 0x1F1 CALLDATASIZE PUSH1 0x4 PUSH2 0xC33 JUMP JUMPDEST PUSH2 0x3BD JUMP JUMPDEST PUSH2 0x18C PUSH2 0x3E9 JUMP JUMPDEST PUSH2 0x211 PUSH2 0x20C CALLDATASIZE PUSH1 0x4 PUSH2 0xC9A JUMP JUMPDEST PUSH2 0x40E JUMP JUMPDEST STOP JUMPDEST PUSH2 0x18C PUSH2 0x221 CALLDATASIZE PUSH1 0x4 PUSH2 0xC9A JUMP JUMPDEST PUSH1 0x1 PUSH1 0x1 PUSH1 0xA0 SHL SUB AND PUSH1 0x0 SWAP1 DUP2 MSTORE PUSH1 0x20 DUP2 SWAP1 MSTORE PUSH1 0x40 SWAP1 KECCAK256 SLOAD SWAP1 JUMP JUMPDEST PUSH2 0x211 PUSH2 0x50D JUMP JUMPDEST PUSH1 0x5 SLOAD PUSH1 0x40 MLOAD PUSH1 0x1 PUSH1 0x1 PUSH1 0xA0 SHL SUB SWAP1 SWAP2 AND DUP2 MSTORE PUSH1 0x20 ADD PUSH2 0x15C JUMP JUMPDEST PUSH2 0x18C PUSH8 0x6765C793FA10079D PUSH1 0x1B SHL DUP2 JUMP JUMPDEST PUSH2 0x14F PUSH2 0x521 JUMP JUMPDEST PUSH2 0x18C PUSH2 0x530 JUMP JUMPDEST PUSH2 0x211 PUSH2 0x28F CALLDATASIZE PUSH1 0x4 PUSH2 0xC33 JUMP JUMPDEST PUSH2 0x548 JUMP JUMPDEST PUSH2 0x178 PUSH2 0x2A2 CALLDATASIZE PUSH1 0x4 PUSH2 0xC33 JUMP JUMPDEST PUSH2 0x638 JUMP JUMPDEST PUSH2 0x178 PUSH2 0x2B5 CALLDATASIZE PUSH1 0x4 PUSH2 0xC33 JUMP JUMPDEST PUSH2 0x6B3 JUMP JUMPDEST PUSH2 0x18C PUSH2 0x2C8 CALLDATASIZE PUSH1 0x4 PUSH2 0xCBC JUMP JUMPDEST PUSH2 0x6C1 JUMP JUMPDEST PUSH2 0x18C PUSH2 0x6EC JUMP JUMPDEST PUSH2 0x211 PUSH2 0x2E3 CALLDATASIZE PUSH1 0x4 PUSH2 0xC9A JUMP JUMPDEST PUSH2 0x74A JUMP JUMPDEST PUSH2 0x18C PUSH2 0x7C3 JUMP JUMPDEST PUSH1 0x60 PUSH1 0x3 DUP1 SLOAD PUSH2 0x2FF SWAP1 PUSH2 0xCEF JUMP JUMPDEST DUP1 PUSH1 0x1F ADD PUSH1 0x20 DUP1 SWAP2 DIV MUL PUSH1 0x20 ADD PUSH1 0x40 MLOAD SWAP1 DUP2 ADD PUSH1 0x40 MSTORE DUP1 SWAP3 SWAP2 SWAP1 DUP2 DUP2 MSTORE PUSH1 0x20 ADD DUP3 DUP1 SLOAD PUSH2 0x32B SWAP1 PUSH2 0xCEF JUMP JUMPDEST DUP1 ISZERO PUSH2 0x378 JUMPI DUP1 PUSH1 0x1F LT PUSH2 0x34D JUMPI PUSH2 0x100 DUP1 DUP4 SLOAD DIV MUL DUP4 MSTORE SWAP2 PUSH1 0x20 ADD SWAP2 PUSH2 0x378 JUMP JUMPDEST DUP3 ADD SWAP2 SWAP1 PUSH1 0x0 MSTORE PUSH1 0x20 PUSH1 0x0 KECCAK256 SWAP1 JUMPDEST DUP2 SLOAD DUP2 MSTORE SWAP1 PUSH1 0x1 ADD SWAP1 PUSH1 0x20 ADD DUP1 DUP4 GT PUSH2 0x35B JUMPI DUP3 SWAP1 SUB PUSH1 0x1F AND DUP3 ADD SWAP2 JUMPDEST POP POP POP POP POP SWAP1 POP SWAP1 JUMP JUMPDEST PUSH1 0x0 PUSH2 0x38F CALLER DUP5 DUP5 PUSH2 0x7DB JUMP JUMPDEST POP PUSH1 0x1 JUMPDEST SWAP3 SWAP2 POP POP JUMP JUMPDEST PUSH1 0x0 CALLER PUSH2 0x3A7 DUP6 DUP3 DUP6 PUSH2 0x8FF JUMP JUMPDEST PUSH2 0x3B2 DUP6 DUP6 DUP6 PUSH2 0x979 JUMP JUMPDEST POP PUSH1 0x1 SWAP5 SWAP4 POP POP POP POP JUMP JUMPDEST PUSH1 0x0 CALLER PUSH2 0x3DF DUP2 DUP6 DUP6 PUSH2 0x3D0 DUP4 DUP4 PUSH2 0x6C1 JUMP JUMPDEST PUSH2 0x3DA SWAP2 SWAP1 PUSH2 0xD3F JUMP JUMPDEST PUSH2 0x7DB JUMP JUMPDEST POP PUSH1 0x1 SWAP4 SWAP3 POP POP POP JUMP JUMPDEST PUSH1 0x64 PUSH2 0x401 PUSH8 0x6765C793FA10079D PUSH1 0x1B SHL PUSH1 0x32 PUSH2 0xD52 JUMP JUMPDEST PUSH2 0x40B SWAP2 SWAP1 PUSH2 0xD69 JUMP JUMPDEST DUP2 JUMP JUMPDEST PUSH2 0x416 PUSH2 0xB1D JUMP JUMPDEST PUSH32 0x0 TIMESTAMP LT ISZERO PUSH2 0x480 JUMPI PUSH1 0x40 MLOAD PUSH3 0x461BCD PUSH1 0xE5 SHL DUP2 MSTORE PUSH1 0x20 PUSH1 0x4 DUP3 ADD MSTORE PUSH1 0x12 PUSH1 0x24 DUP3 ADD MSTORE PUSH18 0x1519585B481D1BDAD95B9CC81B1BD8DAD959 PUSH1 0x72 SHL PUSH1 0x44 DUP3 ADD MSTORE PUSH1 0x64 ADD JUMPDEST PUSH1 0x40 MLOAD DUP1 SWAP2 SUB SWAP1 REVERT JUMPDEST PUSH2 0x4AC ADDRESS DUP3 PUSH1 0x64 PUSH2 0x49D PUSH8 0x6765C793FA10079D PUSH1 0x1B SHL PUSH1 0x1E PUSH2 0xD52 JUMP JUMPDEST PUSH2 0x4A7 SWAP2 SWAP1 PUSH2 0xD69 JUMP JUMPDEST PUSH2 0x979 JUMP JUMPDEST PUSH1 0x1 PUSH1 0x1 PUSH1 0xA0 SHL SUB DUP2 AND PUSH32 0x7D4955D93898478C1771BC9C73295D873FF9E12EBAC83FE4E3B2F99F7DE1EA42 PUSH1 0x64 PUSH2 0x4EF PUSH8 0x6765C793FA10079D PUSH1 0x1B SHL PUSH1 0x1E PUSH2 0xD52 JUMP JUMPDEST PUSH2 0x4F9 SWAP2 SWAP1 PUSH2 0xD69 JUMP JUMPDEST PUSH1 0x40 MLOAD SWAP1 DUP2 MSTORE PUSH1 0x20 ADD PUSH1 0x40 MLOAD DUP1 SWAP2 SUB SWAP1 LOG2 POP JUMP JUMPDEST PUSH2 0x515 PUSH2 0xB1D JUMP JUMPDEST PUSH2 0x51F PUSH1 0x0 PUSH2 0xB77 JUMP JUMPDEST JUMP JUMPDEST PUSH1 0x60 PUSH1 0x4 DUP1 SLOAD PUSH2 0x2FF SWAP1 PUSH2 0xCEF JUMP JUMPDEST PUSH1 0x64 PUSH2 0x401 PUSH8 0x6765C793FA10079D PUSH1 0x1B SHL PUSH1 0x14 PUSH2 0xD52 JUMP JUMPDEST PUSH2 0x550 PUSH2 0xB1D JUMP JUMPDEST PUSH1 0x64 PUSH2 0x568 PUSH8 0x6765C793FA10079D PUSH1 0x1B SHL PUSH1 0x14 PUSH2 0xD52 JUMP JUMPDEST PUSH2 0x572 SWAP2 SWAP1 PUSH2 0xD69 JUMP JUMPDEST DUP2 PUSH1 0x6 SLOAD PUSH2 0x580 SWAP2 SWAP1 PUSH2 0xD3F JUMP JUMPDEST GT ISZERO PUSH2 0x5CE JUMPI PUSH1 0x40 MLOAD PUSH3 0x461BCD PUSH1 0xE5 SHL DUP2 MSTORE PUSH1 0x20 PUSH1 0x4 DUP3 ADD MSTORE PUSH1 0x1C PUSH1 0x24 DUP3 ADD MSTORE PUSH32 0x4578636565647320636F6D6D756E69747920616C6C6F636174696F6E00000000 PUSH1 0x44 DUP3 ADD MSTORE PUSH1 0x64 ADD PUSH2 0x477 JUMP JUMPDEST DUP1 PUSH1 0x6 PUSH1 0x0 DUP3 DUP3 SLOAD PUSH2 0x5E0 SWAP2 SWAP1 PUSH2 0xD3F JUMP JUMPDEST SWAP1 SWAP2 SSTORE POP PUSH2 0x5F1 SWAP1 POP ADDRESS DUP4 DUP4 PUSH2 0x979 JUMP JUMPDEST DUP2 PUSH1 0x1 PUSH1 0x1 PUSH1 0xA0 SHL SUB AND PUSH32 0x16B0DA2FFCB90C6723317BD637D9AAD7F04711F42BBE0AC0918EBE10F1F9001C DUP3 PUSH1 0x40 MLOAD PUSH2 0x62C SWAP2 DUP2 MSTORE PUSH1 0x20 ADD SWAP1 JUMP JUMPDEST PUSH1 0x40 MLOAD DUP1 SWAP2 SUB SWAP1 LOG2 POP POP JUMP JUMPDEST PUSH1 0x0 CALLER DUP2 PUSH2 0x646 DUP3 DUP7 PUSH2 0x6C1 JUMP JUMPDEST SWAP1 POP DUP4 DUP2 LT ISZERO PUSH2 0x6A6 JUMPI PUSH1 0x40 MLOAD PUSH3 0x461BCD PUSH1 0xE5 SHL DUP2 MSTORE PUSH1 0x20 PUSH1 0x4 DUP3 ADD MSTORE PUSH1 0x25 PUSH1 0x24 DUP3 ADD MSTORE PUSH32 0x45524332303A2064656372656173656420616C6C6F77616E63652062656C6F77 PUSH1 0x44 DUP3 ADD MSTORE PUSH5 0x207A65726F PUSH1 0xD8 SHL PUSH1 0x64 DUP3 ADD MSTORE PUSH1 0x84 ADD PUSH2 0x477 JUMP JUMPDEST PUSH2 0x3B2 DUP3 DUP7 DUP7 DUP5 SUB PUSH2 0x7DB JUMP JUMPDEST PUSH1 0x0 CALLER PUSH2 0x3DF DUP2 DUP6 DUP6 PUSH2 0x979 JUMP JUMPDEST PUSH1 0x1 PUSH1 0x1 PUSH1 0xA0 SHL SUB SWAP2 DUP3 AND PUSH1 0x0 SWAP1 DUP2 MSTORE PUSH1 0x1 PUSH1 0x20 SWAP1 DUP2 MSTORE PUSH1 0x40 DUP1 DUP4 KECCAK256 SWAP4 SWAP1 SWAP5 AND DUP3 MSTORE SWAP2 SWAP1 SWAP2 MSTORE KECCAK256 SLOAD SWAP1 JUMP JUMPDEST PUSH1 0x0 TIMESTAMP PUSH32 0x0 GT PUSH2 0x71B JUMPI POP PUSH1 0x0 SWAP1 JUMP JUMPDEST PUSH2 0x745 TIMESTAMP PUSH32 0x0 PUSH2 0xD8B JUMP JUMPDEST SWAP1 POP SWAP1 JUMP JUMPDEST PUSH2 0x752 PUSH2 0xB1D JUMP JUMPDEST PUSH1 0x1 PUSH1 0x1 PUSH1 0xA0 SHL SUB DUP2 AND PUSH2 0x7B7 JUMPI PUSH1 0x40 MLOAD PUSH3 0x461BCD PUSH1 0xE5 SHL DUP2 MSTORE PUSH1 0x20 PUSH1 0x4 DUP3 ADD MSTORE PUSH1 0x26 PUSH1 0x24 DUP3 ADD MSTORE PUSH32 0x4F776E61626C653A206E6577206F776E657220697320746865207A65726F2061 PUSH1 0x44 DUP3 ADD MSTORE PUSH6 0x646472657373 PUSH1 0xD0 SHL PUSH1 0x64 DUP3 ADD MSTORE PUSH1 0x84 ADD PUSH2 0x477 JUMP JUMPDEST PUSH2 0x7C0 DUP2 PUSH2 0xB77 JUMP JUMPDEST POP JUMP JUMPDEST PUSH1 0x64 PUSH2 0x401 PUSH8 0x6765C793FA10079D PUSH1 0x1B SHL PUSH1 0x1E PUSH2 0xD52 JUMP JUMPDEST PUSH1 0x1 PUSH1 0x1 PUSH1 0xA0 SHL SUB DUP4 AND PUSH2 0x83D JUMPI PUSH1 0x40 MLOAD PUSH3 0x461BCD PUSH1 0xE5 SHL DUP2 MSTORE PUSH1 0x20 PUSH1 0x4 DUP3 ADD MSTORE PUSH1 0x24 DUP1 DUP3 ADD MSTORE PUSH32 0x45524332303A20617070726F76652066726F6D20746865207A65726F20616464 PUSH1 0x44 DUP3 ADD MSTORE PUSH4 0x72657373 PUSH1 0xE0 SHL PUSH1 0x64 DUP3 ADD MSTORE PUSH1 0x84 ADD PUSH2 0x477 JUMP JUMPDEST PUSH1 0x1 PUSH1 0x1 PUSH1 0xA0 SHL SUB DUP3 AND PUSH2 0x89E JUMPI PUSH1 0x40 MLOAD PUSH3 0x461BCD PUSH1 0xE5 SHL DUP2 MSTORE PUSH1 0x20 PUSH1 0x4 DUP3 ADD MSTORE PUSH1 0x22 PUSH1 0x24 DUP3 ADD MSTORE PUSH32 0x45524332303A20617070726F766520746F20746865207A65726F206164647265 PUSH1 0x44 DUP3 ADD MSTORE PUSH2 0x7373 PUSH1 0xF0 SHL PUSH1 0x64 DUP3 ADD MSTORE PUSH1 0x84 ADD PUSH2 0x477 JUMP JUMPDEST PUSH1 0x1 PUSH1 0x1 PUSH1 0xA0 SHL SUB DUP4 DUP2 AND PUSH1 0x0 DUP2 DUP2 MSTORE PUSH1 0x1 PUSH1 0x20 SWAP1 DUP2 MSTORE PUSH1 0x40 DUP1 DUP4 KECCAK256 SWAP5 DUP8 AND DUP1 DUP5 MSTORE SWAP5 DUP3 MSTORE SWAP2 DUP3 SWAP1 KECCAK256 DUP6 SWAP1 SSTORE SWAP1 MLOAD DUP5 DUP2 MSTORE PUSH32 0x8C5BE1E5EBEC7D5BD14F71427D1E84F3DD0314C0F7B2291E5B200AC8C7C3B925 SWAP2 ADD PUSH1 0x40 MLOAD DUP1 SWAP2 SUB SWAP1 LOG3 POP POP POP JUMP JUMPDEST PUSH1 0x0 PUSH2 0x90B DUP5 DUP5 PUSH2 0x6C1 JUMP JUMPDEST SWAP1 POP PUSH1 0x0 NOT DUP2 EQ PUSH2 0x973 JUMPI DUP2 DUP2 LT ISZERO PUSH2 0x966 JUMPI PUSH1 0x40 MLOAD PUSH3 0x461BCD PUSH1 0xE5 SHL DUP2 MSTORE PUSH1 0x20 PUSH1 0x4 DUP3 ADD MSTORE PUSH1 0x1D PUSH1 0x24 DUP3 ADD MSTORE PUSH32 0x45524332303A20696E73756666696369656E7420616C6C6F77616E6365000000 PUSH1 0x44 DUP3 ADD MSTORE PUSH1 0x64 ADD PUSH2 0x477 JUMP JUMPDEST PUSH2 0x973 DUP5 DUP5 DUP5 DUP5 SUB PUSH2 0x7DB JUMP JUMPDEST POP POP POP POP JUMP JUMPDEST PUSH1 0x1 PUSH1 0x1 PUSH1 0xA0 SHL SUB DUP4 AND PUSH2 0x9DD JUMPI PUSH1 0x40 MLOAD PUSH3 0x461BCD PUSH1 0xE5 SHL DUP2 MSTORE PUSH1 0x20 PUSH1 0x4 DUP3 ADD MSTORE PUSH1 0x25 PUSH1 0x24 DUP3 ADD MSTORE PUSH32 0x45524332303A207472616E736665722066726F6D20746865207A65726F206164 PUSH1 0x44 DUP3 ADD MSTORE PUSH5 0x6472657373 PUSH1 0xD8 SHL PUSH1 0x64 DUP3 ADD MSTORE PUSH1 0x84 ADD PUSH2 0x477 JUMP JUMPDEST PUSH1 0x1 PUSH1 0x1 PUSH1 0xA0 SHL SUB DUP3 AND PUSH2 0xA3F JUMPI PUSH1 0x40 MLOAD PUSH3 0x461BCD PUSH1 0xE5 SHL DUP2 MSTORE PUSH1 0x20 PUSH1 0x4 DUP3 ADD MSTORE PUSH1 0x23 PUSH1 0x24 DUP3 ADD MSTORE PUSH32 0x45524332303A207472616E7366657220746F20746865207A65726F2061646472 PUSH1 0x44 DUP3 ADD MSTORE PUSH3 0x657373 PUSH1 0xE8 SHL PUSH1 0x64 DUP3 ADD MSTORE PUSH1 0x84 ADD PUSH2 0x477 JUMP JUMPDEST PUSH1 0x1 PUSH1 0x1 PUSH1 0xA0 SHL SUB DUP4 AND PUSH1 0x0 SWAP1 DUP2 MSTORE PUSH1 0x20 DUP2 SWAP1 MSTORE PUSH1 0x40 SWAP1 KECCAK256 SLOAD DUP2 DUP2 LT ISZERO PUSH2 0xAB7 JUMPI PUSH1 0x40 MLOAD PUSH3 0x461BCD PUSH1 0xE5 SHL DUP2 MSTORE PUSH1 0x20 PUSH1 0x4 DUP3 ADD MSTORE PUSH1 0x26 PUSH1 0x24 DUP3 ADD MSTORE PUSH32 0x45524332303A207472616E7366657220616D6F756E7420657863656564732062 PUSH1 0x44 DUP3 ADD MSTORE PUSH6 0x616C616E6365 PUSH1 0xD0 SHL PUSH1 0x64 DUP3 ADD MSTORE PUSH1 0x84 ADD PUSH2 0x477 JUMP JUMPDEST PUSH1 0x1 PUSH1 0x1 PUSH1 0xA0 SHL SUB DUP5 DUP2 AND PUSH1 0x0 DUP2 DUP2 MSTORE PUSH1 0x20 DUP2 DUP2 MSTORE PUSH1 0x40 DUP1 DUP4 KECCAK256 DUP8 DUP8 SUB SWAP1 SSTORE SWAP4 DUP8 AND DUP1 DUP4 MSTORE SWAP2 DUP5 SWAP1 KECCAK256 DUP1 SLOAD DUP8 ADD SWAP1 SSTORE SWAP3 MLOAD DUP6 DUP2 MSTORE SWAP1 SWAP3 PUSH32 0xDDF252AD1BE2C89B69C2B068FC378DAA952BA7F163C4A11628F55A4DF523B3EF SWAP2 ADD PUSH1 0x40 MLOAD DUP1 SWAP2 SUB SWAP1 LOG3 PUSH2 0x973 JUMP JUMPDEST PUSH1 0x5 SLOAD PUSH1 0x1 PUSH1 0x1 PUSH1 0xA0 SHL SUB AND CALLER EQ PUSH2 0x51F JUMPI PUSH1 0x40 MLOAD PUSH3 0x461BCD PUSH1 0xE5 SHL DUP2 MSTORE PUSH1 0x20 PUSH1 0x4 DUP3 ADD DUP2 SWAP1 MSTORE PUSH1 0x24 DUP3 ADD MSTORE PUSH32 0x4F776E61626C653A2063616C6C6572206973206E6F7420746865206F776E6572 PUSH1 0x44 DUP3 ADD MSTORE PUSH1 0x64 ADD PUSH2 0x477 JUMP JUMPDEST PUSH1 0x5 DUP1 SLOAD PUSH1 0x1 PUSH1 0x1 PUSH1 0xA0 SHL SUB DUP4 DUP2 AND PUSH1 0x1 PUSH1 0x1 PUSH1 0xA0 SHL SUB NOT DUP4 AND DUP2 OR SWAP1 SWAP4 SSTORE PUSH1 0x40 MLOAD SWAP2 AND SWAP2 SWAP1 DUP3 SWAP1 PUSH32 0x8BE0079C531659141344CD1FD0A4F28419497F9722A3DAAFE3B4186F6B6457E0 SWAP1 PUSH1 0x0 SWAP1 LOG3 POP POP JUMP JUMPDEST PUSH1 0x20 DUP2 MSTORE PUSH1 0x0 DUP3 MLOAD DUP1 PUSH1 0x20 DUP5 ADD MSTORE PUSH1 0x0 JUMPDEST DUP2 DUP2 LT ISZERO PUSH2 0xBF7 JUMPI PUSH1 0x20 DUP2 DUP7 ADD DUP2 ADD MLOAD PUSH1 0x40 DUP7 DUP5 ADD ADD MSTORE ADD PUSH2 0xBDA JUMP JUMPDEST POP PUSH1 0x0 PUSH1 0x40 DUP3 DUP6 ADD ADD MSTORE PUSH1 0x40 PUSH1 0x1F NOT PUSH1 0x1F DUP4 ADD AND DUP5 ADD ADD SWAP2 POP POP SWAP3 SWAP2 POP POP JUMP JUMPDEST DUP1 CALLDATALOAD PUSH1 0x1 PUSH1 0x1 PUSH1 0xA0 SHL SUB DUP2 AND DUP2 EQ PUSH2 0xC2E JUMPI PUSH1 0x0 DUP1 REVERT JUMPDEST SWAP2 SWAP1 POP JUMP JUMPDEST PUSH1 0x0 DUP1 PUSH1 0x40 DUP4 DUP6 SUB SLT ISZERO PUSH2 0xC46 JUMPI PUSH1 0x0 DUP1 REVERT JUMPDEST PUSH2 0xC4F DUP4 PUSH2 0xC17 JUMP JUMPDEST SWAP5 PUSH1 0x20 SWAP4 SWAP1 SWAP4 ADD CALLDATALOAD SWAP4 POP POP POP JUMP JUMPDEST PUSH1 0x0 DUP1 PUSH1 0x0 PUSH1 0x60 DUP5 DUP7 SUB SLT ISZERO PUSH2 0xC72 JUMPI PUSH1 0x0 DUP1 REVERT JUMPDEST PUSH2 0xC7B DUP5 PUSH2 0xC17 JUMP JUMPDEST SWAP3 POP PUSH2 0xC89 PUSH1 0x20 DUP6 ADD PUSH2 0xC17 JUMP JUMPDEST SWAP3 SWAP6 SWAP3 SWAP5 POP POP POP PUSH1 0x40 SWAP2 SWAP1 SWAP2 ADD CALLDATALOAD SWAP1 JUMP JUMPDEST PUSH1 0x0 PUSH1 0x20 DUP3 DUP5 SUB SLT ISZERO PUSH2 0xCAC JUMPI PUSH1 0x0 DUP1 REVERT JUMPDEST PUSH2 0xCB5 DUP3 PUSH2 0xC17 JUMP JUMPDEST SWAP4 SWAP3 POP POP POP JUMP JUMPDEST PUSH1 0x0 DUP1 PUSH1 0x40 DUP4 DUP6 SUB SLT ISZERO PUSH2 0xCCF JUMPI PUSH1 0x0 DUP1 REVERT JUMPDEST PUSH2 0xCD8 DUP4 PUSH2 0xC17 JUMP JUMPDEST SWAP2 POP PUSH2 0xCE6 PUSH1 0x20 DUP5 ADD PUSH2 0xC17 JUMP JUMPDEST SWAP1 POP SWAP3 POP SWAP3 SWAP1 POP JUMP JUMPDEST PUSH1 0x1 DUP2 DUP2 SHR SWAP1 DUP3 AND DUP1 PUSH2 0xD03 JUMPI PUSH1 0x7F DUP3 AND SWAP2 POP JUMPDEST PUSH1 0x20 DUP3 LT DUP2 SUB PUSH2 0xD23 JUMPI PUSH4 0x4E487B71 PUSH1 0xE0 SHL PUSH1 0x0 MSTORE PUSH1 0x22 PUSH1 0x4 MSTORE PUSH1 0x24 PUSH1 0x0 REVERT JUMPDEST POP SWAP2 SWAP1 POP JUMP JUMPDEST PUSH4 0x4E487B71 PUSH1 0xE0 SHL PUSH1 0x0 MSTORE PUSH1 0x11 PUSH1 0x4 MSTORE PUSH1 0x24 PUSH1 0x0 REVERT JUMPDEST DUP1 DUP3 ADD DUP1 DUP3 GT ISZERO PUSH2 0x393 JUMPI PUSH2 0x393 PUSH2 0xD29 JUMP JUMPDEST DUP1 DUP3 MUL DUP2 ISZERO DUP3 DUP3 DIV DUP5 EQ OR PUSH2 0x393 JUMPI PUSH2 0x393 PUSH2 0xD29 JUMP JUMPDEST PUSH1 0x0 DUP3 PUSH2 0xD86 JUMPI PUSH4 0x4E487B71 PUSH1 0xE0 SHL PUSH1 0x0 MSTORE PUSH1 0x12 PUSH1 0x4 MSTORE PUSH1 0x24 PUSH1 0x0 REVERT JUMPDEST POP DIV SWAP1 JUMP JUMPDEST DUP2 DUP2 SUB DUP2 DUP2 GT ISZERO PUSH2 0x393 JUMPI PUSH2 0x393 PUSH2 0xD29 JUMP INVALID LOG2 PUSH5 0x6970667358 0x22 SLT KECCAK256 CREATE 0xB2 PUSH13 0x479FDB3825BF500FE1A9D9463E DUP1 DUP2 0xC3 PREVRANDAO DUP9 SUB 0xDB PUSH25 0x80800B7FBFD731E764736F6C634300081C0033000000000000 "},"methodIdentifiers":{"COMMUNITY_ALLOCATION()":"993eb1c5","PUBLIC_SALE_ALLOCATION()":"3dc762f0","TEAM_ALLOCATION()":"fd99cbed","TOTAL_SUPPLY()":"902d55a5","allowance(address,address)":"dd62ed3e","approve(address,uint256)":"095ea7b3","balanceOf(address)":"70a08231","decimals()":"313ce567","decreaseAllowance(address,uint256)":"a457c2d7","distributeCommunityTokens(address,uint256)":"9ca5bc01","increaseAllowance(address,uint256)":"39509351","name()":"06fdde03","owner()":"8da5cb5b","remainingLockTime()":"ec0359f4","renounceOwnership()":"715018a6","symbol()":"95d89b41","totalSupply()":"18160ddd","transfer(address,uint256)":"a9059cbb","transferFrom(address,address,uint256)":"23b872dd","transferOwnership(address)":"f2fde38b","unlockTeamTokens(address)":"63e27a63","unlockTime()":"251c1aa3"}}}}}