{
  "_format": "hh-sol-artifact-1",
  "contractName": "StakingContract",
  "sourceName": "contracts/StakingContract.sol",
  "abi": [
    {
      "inputs": [
        {
          "internalType": "address",
          "name": "tokenAddress",
          "type": "address"
        }
      ],
      "stateMutability": "nonpayable",
      "type": "constructor"
    },
    {
      "inputs": [],
      "name": "LOCK_PERIOD",
      "outputs": [
        {
          "internalType": "uint256",
          "name": "",
          "type": "uint256"
        }
      ],
      "stateMutability": "view",
      "type": "function"
    },
    {
      "inputs": [],
      "name": "REWARD_RATE",
      "outputs": [
        {
          "internalType": "uint256",
          "name": "",
          "type": "uint256"
        }
      ],
      "stateMutability": "view",
      "type": "function"
    },
    {
      "inputs": [
        {
          "internalType": "uint256",
          "name": "amount",
          "type": "uint256"
        }
      ],
      "name": "stake",
      "outputs": [],
      "stateMutability": "nonpayable",
      "type": "function"
    },
    {
      "inputs": [
        {
          "internalType": "address",
          "name": "",
          "type": "address"
        }
      ],
      "name": "stakes",
      "outputs": [
        {
          "internalType": "uint256",
          "name": "amount",
          "type": "uint256"
        },
        {
          "internalType": "uint256",
          "name": "startTime",
          "type": "uint256"
        },
        {
          "internalType": "bool",
          "name": "exists",
          "type": "bool"
        }
      ],
      "stateMutability": "view",
      "type": "function"
    },
    {
      "inputs": [],
      "name": "stakingToken",
      "outputs": [
        {
          "internalType": "contract IERC20",
          "name": "",
          "type": "address"
        }
      ],
      "stateMutability": "view",
      "type": "function"
    },
    {
      "inputs": [],
      "name": "unstake",
      "outputs": [],
      "stateMutability": "nonpayable",
      "type": "function"
    }
  ],
  "bytecode": "0x60a060405234801561001057600080fd5b50604051610a1a380380610a1a83398101604081905261002f91610045565b60016000556001600160a01b0316608052610075565b60006020828403121561005757600080fd5b81516001600160a01b038116811461006e57600080fd5b9392505050565b60805161097d61009d6000396000818160e90152818161024c0152610334015261097d6000f3fe608060405234801561001057600080fd5b50600436106100625760003560e01c806316934fc4146100675780631820cabb146100ba5780632def6620146100d25780635997bb37146100dc57806372f702f3146100e4578063a694fc3a14610123575b600080fd5b610098610075366004610801565b600160208190526000918252604090912080549181015460029091015460ff1683565b6040805193845260208401929092521515908201526060015b60405180910390f35b6100c462278d0081565b6040519081526020016100b1565b6100da610136565b005b6100c4600a81565b61010b7f000000000000000000000000000000000000000000000000000000000000000081565b6040516001600160a01b0390911681526020016100b1565b6100da61013136600461082a565b61028a565b61013e6103ad565b336000908152600160205260409020600281015460ff166101915760405162461bcd60e51b81526020600482015260086024820152674e6f207374616b6560c01b60448201526064015b60405180910390fd5b62278d0081600101546101a49190610859565b4210156101dc5760405162461bcd60e51b8152602060048201526006602482015265131bd8dad95960d21b6044820152606401610188565b80546001820154600091610209916101f49042610872565b6101ff90600a610885565b63bbf81e00610406565b9050600081836000015461021d9190610859565b336000818152600160208190526040822082815590810191909155600201805460ff1916905590915061027b907f00000000000000000000000000000000000000000000000000000000000000006001600160a01b031690836104f6565b5050506102886001600055565b565b6102926103ad565b600081116102d35760405162461bcd60e51b815260206004820152600e60248201526d043616e6e6f74207374616b6520360941b6044820152606401610188565b3360009081526001602052604090206002015460ff16156103275760405162461bcd60e51b815260206004820152600e60248201526d4578697374696e67207374616b6560901b6044820152606401610188565b61035c6001600160a01b037f00000000000000000000000000000000000000000000000000000000000000001633308461055e565b604080516060810182528281524260208083019182526001838501818152336000908152928290529482209351845591518383015592516002909201805460ff191692151592909217909155905550565b6002600054036103ff5760405162461bcd60e51b815260206004820152601f60248201527f5265656e7472616e637947756172643a207265656e7472616e742063616c6c006044820152606401610188565b6002600055565b6000808060001985870985870292508281108382030391505080600003610440578382816104365761043661089c565b04925050506104ef565b8084116104875760405162461bcd60e51b81526020600482015260156024820152744d6174683a206d756c446976206f766572666c6f7760581b6044820152606401610188565b600084868809851960019081018716968790049682860381900495909211909303600082900391909104909201919091029190911760038402600290811880860282030280860282030280860282030280860282030280860282030280860290910302029150505b9392505050565b6040516001600160a01b03831660248201526044810182905261055990849063a9059cbb60e01b906064015b60408051601f198184030181529190526020810180516001600160e01b03166001600160e01b03199093169290921790915261059c565b505050565b6040516001600160a01b03808516602483015283166044820152606481018290526105969085906323b872dd60e01b90608401610522565b50505050565b60006105f1826040518060400160405280602081526020017f5361666545524332303a206c6f772d6c6576656c2063616c6c206661696c6564815250856001600160a01b03166106719092919063ffffffff16565b905080516000148061061257508080602001905181019061061291906108b2565b6105595760405162461bcd60e51b815260206004820152602a60248201527f5361666545524332303a204552433230206f7065726174696f6e20646964206e6044820152691bdd081cdd58d8d9595960b21b6064820152608401610188565b60606106808484600085610688565b949350505050565b6060824710156106e95760405162461bcd60e51b815260206004820152602660248201527f416464726573733a20696e73756666696369656e742062616c616e636520666f6044820152651c8818d85b1b60d21b6064820152608401610188565b600080866001600160a01b0316858760405161070591906108f8565b60006040518083038185875af1925050503d8060008114610742576040519150601f19603f3d011682016040523d82523d6000602084013e610747565b606091505b509150915061075887838387610763565b979650505050505050565b606083156107d25782516000036107cb576001600160a01b0385163b6107cb5760405162461bcd60e51b815260206004820152601d60248201527f416464726573733a2063616c6c20746f206e6f6e2d636f6e74726163740000006044820152606401610188565b5081610680565b61068083838151156107e75781518083602001fd5b8060405162461bcd60e51b81526004016101889190610914565b60006020828403121561081357600080fd5b81356001600160a01b03811681146104ef57600080fd5b60006020828403121561083c57600080fd5b5035919050565b634e487b7160e01b600052601160045260246000fd5b8082018082111561086c5761086c610843565b92915050565b8181038181111561086c5761086c610843565b808202811582820484141761086c5761086c610843565b634e487b7160e01b600052601260045260246000fd5b6000602082840312156108c457600080fd5b815180151581146104ef57600080fd5b60005b838110156108ef5781810151838201526020016108d7565b50506000910152565b6000825161090a8184602087016108d4565b9190910192915050565b60208152600082518060208401526109338160408501602087016108d4565b601f01601f1916919091016040019291505056fea2646970667358221220f5bfecc69ccd015be0e376ad58e37d2cdb4e41995ff1669cee3e1075df19743c64736f6c634300081c0033",
  "linkReferences": {},
  "deployedLinkReferences": {}
}