{
  "_format": "hh-sol-artifact-1",
  "contractName": "X1Coin",
  "sourceName": "contracts/X1Coin.sol",
  "abi": [
    {
      "inputs": [],
      "stateMutability": "nonpayable",
      "type": "constructor"
    },
    {
      "anonymous": false,
      "inputs": [
        {
          "indexed": true,
          "internalType": "address",
          "name": "owner",
          "type": "address"
        },
        {
          "indexed": true,
          "internalType": "address",
          "name": "spender",
          "type": "address"
        },
        {
          "indexed": false,
          "internalType": "uint256",
          "name": "value",
          "type": "uint256"
        }
      ],
      "name": "Approval",
      "type": "event"
    },
    {
      "anonymous": false,
      "inputs": [
        {
          "indexed": true,
          "internalType": "address",
          "name": "previousOwner",
          "type": "address"
        },
        {
          "indexed": true,
          "internalType": "address",
          "name": "newOwner",
          "type": "address"
        }
      ],
      "name": "OwnershipTransferred",
      "type": "event"
    },
    {
      "anonymous": false,
      "inputs": [
        {
          "indexed": true,
          "internalType": "address",
          "name": "to",
          "type": "address"
        },
        {
          "indexed": false,
          "internalType": "uint256",
          "name": "amount",
          "type": "uint256"
        }
      ],
      "name": "TeamTokensUnlocked",
      "type": "event"
    },
    {
      "anonymous": false,
      "inputs": [
        {
          "indexed": true,
          "internalType": "address",
          "name": "to",
          "type": "address"
        },
        {
          "indexed": false,
          "internalType": "uint256",
          "name": "amount",
          "type": "uint256"
        }
      ],
      "name": "TokensDistributed",
      "type": "event"
    },
    {
      "anonymous": false,
      "inputs": [
        {
          "indexed": true,
          "internalType": "address",
          "name": "from",
          "type": "address"
        },
        {
          "indexed": true,
          "internalType": "address",
          "name": "to",
          "type": "address"
        },
        {
          "indexed": false,
          "internalType": "uint256",
          "name": "value",
          "type": "uint256"
        }
      ],
      "name": "Transfer",
      "type": "event"
    },
    {
      "inputs": [],
      "name": "COMMUNITY_ALLOCATION",
      "outputs": [
        {
          "internalType": "uint256",
          "name": "",
          "type": "uint256"
        }
      ],
      "stateMutability": "view",
      "type": "function"
    },
    {
      "inputs": [],
      "name": "PUBLIC_SALE_ALLOCATION",
      "outputs": [
        {
          "internalType": "uint256",
          "name": "",
          "type": "uint256"
        }
      ],
      "stateMutability": "view",
      "type": "function"
    },
    {
      "inputs": [],
      "name": "TEAM_ALLOCATION",
      "outputs": [
        {
          "internalType": "uint256",
          "name": "",
          "type": "uint256"
        }
      ],
      "stateMutability": "view",
      "type": "function"
    },
    {
      "inputs": [],
      "name": "TOTAL_SUPPLY",
      "outputs": [
        {
          "internalType": "uint256",
          "name": "",
          "type": "uint256"
        }
      ],
      "stateMutability": "view",
      "type": "function"
    },
    {
      "inputs": [
        {
          "internalType": "address",
          "name": "owner",
          "type": "address"
        },
        {
          "internalType": "address",
          "name": "spender",
          "type": "address"
        }
      ],
      "name": "allowance",
      "outputs": [
        {
          "internalType": "uint256",
          "name": "",
          "type": "uint256"
        }
      ],
      "stateMutability": "view",
      "type": "function"
    },
    {
      "inputs": [
        {
          "internalType": "address",
          "name": "spender",
          "type": "address"
        },
        {
          "internalType": "uint256",
          "name": "amount",
          "type": "uint256"
        }
      ],
      "name": "approve",
      "outputs": [
        {
          "internalType": "bool",
          "name": "",
          "type": "bool"
        }
      ],
      "stateMutability": "nonpayable",
      "type": "function"
    },
    {
      "inputs": [
        {
          "internalType": "address",
          "name": "account",
          "type": "address"
        }
      ],
      "name": "balanceOf",
      "outputs": [
        {
          "internalType": "uint256",
          "name": "",
          "type": "uint256"
        }
      ],
      "stateMutability": "view",
      "type": "function"
    },
    {
      "inputs": [],
      "name": "decimals",
      "outputs": [
        {
          "internalType": "uint8",
          "name": "",
          "type": "uint8"
        }
      ],
      "stateMutability": "pure",
      "type": "function"
    },
    {
      "inputs": [
        {
          "internalType": "address",
          "name": "spender",
          "type": "address"
        },
        {
          "internalType": "uint256",
          "name": "subtractedValue",
          "type": "uint256"
        }
      ],
      "name": "decreaseAllowance",
      "outputs": [
        {
          "internalType": "bool",
          "name": "",
          "type": "bool"
        }
      ],
      "stateMutability": "nonpayable",
      "type": "function"
    },
    {
      "inputs": [
        {
          "internalType": "address",
          "name": "to",
          "type": "address"
        },
        {
          "internalType": "uint256",
          "name": "amount",
          "type": "uint256"
        }
      ],
      "name": "distributeCommunityTokens",
      "outputs": [],
      "stateMutability": "nonpayable",
      "type": "function"
    },
    {
      "inputs": [
        {
          "internalType": "address",
          "name": "spender",
          "type": "address"
        },
        {
          "internalType": "uint256",
          "name": "addedValue",
          "type": "uint256"
        }
      ],
      "name": "increaseAllowance",
      "outputs": [
        {
          "internalType": "bool",
          "name": "",
          "type": "bool"
        }
      ],
      "stateMutability": "nonpayable",
      "type": "function"
    },
    {
      "inputs": [],
      "name": "name",
      "outputs": [
        {
          "internalType": "string",
          "name": "",
          "type": "string"
        }
      ],
      "stateMutability": "view",
      "type": "function"
    },
    {
      "inputs": [],
      "name": "owner",
      "outputs": [
        {
          "internalType": "address",
          "name": "",
          "type": "address"
        }
      ],
      "stateMutability": "view",
      "type": "function"
    },
    {
      "inputs": [],
      "name": "remainingLockTime",
      "outputs": [
        {
          "internalType": "uint256",
          "name": "",
          "type": "uint256"
        }
      ],
      "stateMutability": "view",
      "type": "function"
    },
    {
      "inputs": [],
      "name": "renounceOwnership",
      "outputs": [],
      "stateMutability": "nonpayable",
      "type": "function"
    },
    {
      "inputs": [],
      "name": "symbol",
      "outputs": [
        {
          "internalType": "string",
          "name": "",
          "type": "string"
        }
      ],
      "stateMutability": "view",
      "type": "function"
    },
    {
      "inputs": [],
      "name": "totalSupply",
      "outputs": [
        {
          "internalType": "uint256",
          "name": "",
          "type": "uint256"
        }
      ],
      "stateMutability": "view",
      "type": "function"
    },
    {
      "inputs": [
        {
          "internalType": "address",
          "name": "to",
          "type": "address"
        },
        {
          "internalType": "uint256",
          "name": "amount",
          "type": "uint256"
        }
      ],
      "name": "transfer",
      "outputs": [
        {
          "internalType": "bool",
          "name": "",
          "type": "bool"
        }
      ],
      "stateMutability": "nonpayable",
      "type": "function"
    },
    {
      "inputs": [
        {
          "internalType": "address",
          "name": "from",
          "type": "address"
        },
        {
          "internalType": "address",
          "name": "to",
          "type": "address"
        },
        {
          "internalType": "uint256",
          "name": "amount",
          "type": "uint256"
        }
      ],
      "name": "transferFrom",
      "outputs": [
        {
          "internalType": "bool",
          "name": "",
          "type": "bool"
        }
      ],
      "stateMutability": "nonpayable",
      "type": "function"
    },
    {
      "inputs": [
        {
          "internalType": "address",
          "name": "newOwner",
          "type": "address"
        }
      ],
      "name": "transferOwnership",
      "outputs": [],
      "stateMutability": "nonpayable",
      "type": "function"
    },
    {
      "inputs": [
        {
          "internalType": "address",
          "name": "to",
          "type": "address"
        }
      ],
      "name": "unlockTeamTokens",
      "outputs": [],
      "stateMutability": "nonpayable",
      "type": "function"
    },
    {
      "inputs": [],
      "name": "unlockTime",
      "outputs": [
        {
          "internalType": "uint256",
          "name": "",
          "type": "uint256"
        }
      ],
      "stateMutability": "view",
      "type": "function"
    }
  ],
  "bytecode": "0x60a060405234801561001057600080fd5b50604051806040016040528060068152602001652c18a1b7b4b760d11b8152506040518060400160405280600381526020016258314360e81b815250816003908161005b91906102d2565b50600461006882826102d2565b50505061008161007c61011660201b60201c565b61011a565b6100ad33606461009e6b033b2e3c9fd0803ce800000060326103a6565b6100a891906103c3565b61016c565b6101013060646100ca6b033b2e3c9fd0803ce800000060146103a6565b6100d491906103c3565b60646100ed6b033b2e3c9fd0803ce8000000601e6103a6565b6100f791906103c3565b6100a891906103e5565b61010e4262ed4e006103e5565b6080526103f8565b3390565b600580546001600160a01b038381166001600160a01b0319831681179093556040519116919082907f8be0079c531659141344cd1fd0a4f28419497f9722a3daafe3b4186f6b6457e090600090a35050565b6001600160a01b0382166101c65760405162461bcd60e51b815260206004820152601f60248201527f45524332303a206d696e7420746f20746865207a65726f206164647265737300604482015260640160405180910390fd5b80600260008282546101d891906103e5565b90915550506001600160a01b038216600081815260208181526040808320805486019055518481527fddf252ad1be2c89b69c2b068fc378daa952ba7f163c4a11628f55a4df523b3ef910160405180910390a35050565b505050565b634e487b7160e01b600052604160045260246000fd5b600181811c9082168061025e57607f821691505b60208210810361027e57634e487b7160e01b600052602260045260246000fd5b50919050565b601f82111561022f57806000526020600020601f840160051c810160208510156102ab5750805b601f840160051c820191505b818110156102cb57600081556001016102b7565b5050505050565b81516001600160401b038111156102eb576102eb610234565b6102ff816102f9845461024a565b84610284565b6020601f821160018114610333576000831561031b5750848201515b600019600385901b1c1916600184901b1784556102cb565b600084815260208120601f198516915b828110156103635787850151825560209485019460019092019101610343565b50848210156103815786840151600019600387901b60f8161c191681555b50505050600190811b01905550565b634e487b7160e01b600052601160045260246000fd5b80820281158282048414176103bd576103bd610390565b92915050565b6000826103e057634e487b7160e01b600052601260045260246000fd5b500490565b808201808211156103bd576103bd610390565b608051610dd4610428600039600081816101b201528181610418015281816106f101526107210152610dd46000f3fe608060405234801561001057600080fd5b50600436106101425760003560e01c80638da5cb5b116100b8578063a457c2d71161007c578063a457c2d714610294578063a9059cbb146102a7578063dd62ed3e146102ba578063ec0359f4146102cd578063f2fde38b146102d5578063fd99cbed146102e857600080fd5b80638da5cb5b14610244578063902d55a51461025f57806395d89b4114610271578063993eb1c5146102795780639ca5bc011461028157600080fd5b8063313ce5671161010a578063313ce567146101d457806339509351146101e35780633dc762f0146101f657806363e27a63146101fe57806370a0823114610213578063715018a61461023c57600080fd5b806306fdde0314610147578063095ea7b31461016557806318160ddd1461018857806323b872dd1461019a578063251c1aa3146101ad575b600080fd5b61014f6102f0565b60405161015c9190610bc9565b60405180910390f35b610178610173366004610c33565b610382565b604051901515815260200161015c565b6002545b60405190815260200161015c565b6101786101a8366004610c5d565b610399565b61018c7f000000000000000000000000000000000000000000000000000000000000000081565b6040516012815260200161015c565b6101786101f1366004610c33565b6103bd565b61018c6103e9565b61021161020c366004610c9a565b61040e565b005b61018c610221366004610c9a565b6001600160a01b031660009081526020819052604090205490565b61021161050d565b6005546040516001600160a01b03909116815260200161015c565b61018c676765c793fa10079d601b1b81565b61014f610521565b61018c610530565b61021161028f366004610c33565b610548565b6101786102a2366004610c33565b610638565b6101786102b5366004610c33565b6106b3565b61018c6102c8366004610cbc565b6106c1565b61018c6106ec565b6102116102e3366004610c9a565b61074a565b61018c6107c3565b6060600380546102ff90610cef565b80601f016020809104026020016040519081016040528092919081815260200182805461032b90610cef565b80156103785780601f1061034d57610100808354040283529160200191610378565b820191906000526020600020905b81548152906001019060200180831161035b57829003601f168201915b5050505050905090565b600061038f3384846107db565b5060015b92915050565b6000336103a78582856108ff565b6103b2858585610979565b506001949350505050565b6000336103df8185856103d083836106c1565b6103da9190610d3f565b6107db565b5060019392505050565b6064610401676765c793fa10079d601b1b6032610d52565b61040b9190610d69565b81565b610416610b1d565b7f00000000000000000000000000000000000000000000000000000000000000004210156104805760405162461bcd60e51b81526020600482015260126024820152711519585b481d1bdad95b9cc81b1bd8dad95960721b60448201526064015b60405180910390fd5b6104ac3082606461049d676765c793fa10079d601b1b601e610d52565b6104a79190610d69565b610979565b6001600160a01b0381167f7d4955d93898478c1771bc9c73295d873ff9e12ebac83fe4e3b2f99f7de1ea4260646104ef676765c793fa10079d601b1b601e610d52565b6104f99190610d69565b60405190815260200160405180910390a250565b610515610b1d565b61051f6000610b77565b565b6060600480546102ff90610cef565b6064610401676765c793fa10079d601b1b6014610d52565b610550610b1d565b6064610568676765c793fa10079d601b1b6014610d52565b6105729190610d69565b816006546105809190610d3f565b11156105ce5760405162461bcd60e51b815260206004820152601c60248201527f4578636565647320636f6d6d756e69747920616c6c6f636174696f6e000000006044820152606401610477565b80600660008282546105e09190610d3f565b909155506105f19050308383610979565b816001600160a01b03167f16b0da2ffcb90c6723317bd637d9aad7f04711f42bbe0ac0918ebe10f1f9001c8260405161062c91815260200190565b60405180910390a25050565b6000338161064682866106c1565b9050838110156106a65760405162461bcd60e51b815260206004820152602560248201527f45524332303a2064656372656173656420616c6c6f77616e63652062656c6f77604482015264207a65726f60d81b6064820152608401610477565b6103b282868684036107db565b6000336103df818585610979565b6001600160a01b03918216600090815260016020908152604080832093909416825291909152205490565b6000427f00000000000000000000000000000000000000000000000000000000000000001161071b5750600090565b610745427f0000000000000000000000000000000000000000000000000000000000000000610d8b565b905090565b610752610b1d565b6001600160a01b0381166107b75760405162461bcd60e51b815260206004820152602660248201527f4f776e61626c653a206e6577206f776e657220697320746865207a65726f206160448201526564647265737360d01b6064820152608401610477565b6107c081610b77565b50565b6064610401676765c793fa10079d601b1b601e610d52565b6001600160a01b03831661083d5760405162461bcd60e51b8152602060048201526024808201527f45524332303a20617070726f76652066726f6d20746865207a65726f206164646044820152637265737360e01b6064820152608401610477565b6001600160a01b03821661089e5760405162461bcd60e51b815260206004820152602260248201527f45524332303a20617070726f766520746f20746865207a65726f206164647265604482015261737360f01b6064820152608401610477565b6001600160a01b0383811660008181526001602090815260408083209487168084529482529182902085905590518481527f8c5be1e5ebec7d5bd14f71427d1e84f3dd0314c0f7b2291e5b200ac8c7c3b925910160405180910390a3505050565b600061090b84846106c1565b9050600019811461097357818110156109665760405162461bcd60e51b815260206004820152601d60248201527f45524332303a20696e73756666696369656e7420616c6c6f77616e63650000006044820152606401610477565b61097384848484036107db565b50505050565b6001600160a01b0383166109dd5760405162461bcd60e51b815260206004820152602560248201527f45524332303a207472616e736665722066726f6d20746865207a65726f206164604482015264647265737360d81b6064820152608401610477565b6001600160a01b038216610a3f5760405162461bcd60e51b815260206004820152602360248201527f45524332303a207472616e7366657220746f20746865207a65726f206164647260448201526265737360e81b6064820152608401610477565b6001600160a01b03831660009081526020819052604090205481811015610ab75760405162461bcd60e51b815260206004820152602660248201527f45524332303a207472616e7366657220616d6f756e7420657863656564732062604482015265616c616e636560d01b6064820152608401610477565b6001600160a01b03848116600081815260208181526040808320878703905593871680835291849020805487019055925185815290927fddf252ad1be2c89b69c2b068fc378daa952ba7f163c4a11628f55a4df523b3ef910160405180910390a3610973565b6005546001600160a01b0316331461051f5760405162461bcd60e51b815260206004820181905260248201527f4f776e61626c653a2063616c6c6572206973206e6f7420746865206f776e65726044820152606401610477565b600580546001600160a01b038381166001600160a01b0319831681179093556040519116919082907f8be0079c531659141344cd1fd0a4f28419497f9722a3daafe3b4186f6b6457e090600090a35050565b602081526000825180602084015260005b81811015610bf75760208186018101516040868401015201610bda565b506000604082850101526040601f19601f83011684010191505092915050565b80356001600160a01b0381168114610c2e57600080fd5b919050565b60008060408385031215610c4657600080fd5b610c4f83610c17565b946020939093013593505050565b600080600060608486031215610c7257600080fd5b610c7b84610c17565b9250610c8960208501610c17565b929592945050506040919091013590565b600060208284031215610cac57600080fd5b610cb582610c17565b9392505050565b60008060408385031215610ccf57600080fd5b610cd883610c17565b9150610ce660208401610c17565b90509250929050565b600181811c90821680610d0357607f821691505b602082108103610d2357634e487b7160e01b600052602260045260246000fd5b50919050565b634e487b7160e01b600052601160045260246000fd5b8082018082111561039357610393610d29565b808202811582820484141761039357610393610d29565b600082610d8657634e487b7160e01b600052601260045260246000fd5b500490565b8181038181111561039357610393610d2956fea2646970667358221220f0b26c479fdb3825bf500fe1a9d9463e8081c3448803db7880800b7fbfd731e764736f6c634300081c0033",
  "linkReferences": {},
  "deployedLinkReferences": {}
}